{
  "contractName": "Election",
  "abi": [
    {
      "constant": true,
      "inputs": [],
      "name": "candidatesCount",
      "outputs": [
        {
          "name": "",
          "type": "uint256"
        }
      ],
      "payable": false,
      "stateMutability": "view",
      "type": "function",
      "signature": "0x2d35a8a2"
    },
    {
      "constant": true,
      "inputs": [
        {
          "name": "",
          "type": "uint256"
        }
      ],
      "name": "candidates",
      "outputs": [
        {
          "name": "id",
          "type": "uint256"
        },
        {
          "name": "name",
          "type": "string"
        },
        {
          "name": "voteCount",
          "type": "uint256"
        }
      ],
      "payable": false,
      "stateMutability": "view",
      "type": "function",
      "signature": "0x3477ee2e"
    },
    {
      "constant": true,
      "inputs": [
        {
          "name": "",
          "type": "address"
        }
      ],
      "name": "voters",
      "outputs": [
        {
          "name": "",
          "type": "bool"
        }
      ],
      "payable": false,
      "stateMutability": "view",
      "type": "function",
      "signature": "0xa3ec138d"
    },
    {
      "inputs": [],
      "payable": false,
      "stateMutability": "nonpayable",
      "type": "constructor",
      "signature": "constructor"
    },
    {
      "constant": false,
      "inputs": [
        {
          "name": "_candidateId",
          "type": "uint256"
        }
      ],
      "name": "vote",
      "outputs": [],
      "payable": false,
      "stateMutability": "nonpayable",
      "type": "function",
      "signature": "0x0121b93f"
    }
  ],
  "bytecode": "0x608060405234801561001057600080fd5b5061005e6040805190810160405280600b81526020017f43616e64696461746520310000000000000000000000000000000000000000008152506100b2640100000000026401000000009004565b506100ac6040805190810160405280600b81526020017f43616e64696461746520320000000000000000000000000000000000000000008152506100b2640100000000026401000000009004565b506101dc565b600060026000815480929190600101919050555060606040519081016040528060025481526020018381526020016000815250600080600254815260200190815260200160002060008201518160000155602082015181600101908051906020019061011f929190610137565b50604082015181600201559050506002549050919050565b828054600181600116156101000203166002900490600052602060002090601f016020900481019282601f1061017857805160ff19168380011785556101a6565b828001600101855582156101a6579182015b828111156101a557825182559160200191906001019061018a565b5b5090506101b391906101b7565b5090565b6101d991905b808211156101d55760008160009055506001016101bd565b5090565b90565b610401806101eb6000396000f3fe608060405260043610610062576000357c0100000000000000000000000000000000000000000000000000000000900463ffffffff1680630121b93f146100675780632d35a8a2146100a25780633477ee2e146100cd578063a3ec138d1461018f575b600080fd5b34801561007357600080fd5b506100a06004803603602081101561008a57600080fd5b81019080803590602001909291905050506101f8565b005b3480156100ae57600080fd5b506100b76102ed565b6040518082815260200191505060405180910390f35b3480156100d957600080fd5b50610106600480360360208110156100f057600080fd5b81019080803590602001909291905050506102f3565b6040518084815260200180602001838152602001828103825284818151815260200191508051906020019080838360005b83811015610152578082015181840152602081019050610137565b50505050905090810190601f16801561017f5780820380516001836020036101000a031916815260200191505b5094505050505060405180910390f35b34801561019b57600080fd5b506101de600480360360208110156101b257600080fd5b81019080803573ffffffffffffffffffffffffffffffffffffffff1690602001909291905050506103b5565b604051808215151515815260200191505060405180910390f35b600160003373ffffffffffffffffffffffffffffffffffffffff1673ffffffffffffffffffffffffffffffffffffffff16815260200190815260200160002060009054906101000a900460ff1615151561025157600080fd5b60008111801561026357506002548111155b151561026e57600080fd5b60018060003373ffffffffffffffffffffffffffffffffffffffff1673ffffffffffffffffffffffffffffffffffffffff16815260200190815260200160002060006101000a81548160ff0219169083151502179055506000808281526020019081526020016000206002016000815480929190600101919050555050565b60025481565b6000602052806000526040600020600091509050806000015490806001018054600181600116156101000203166002900480601f0160208091040260200160405190810160405280929190818152602001828054600181600116156101000203166002900480156103a55780601f1061037a576101008083540402835291602001916103a5565b820191906000526020600020905b81548152906001019060200180831161038857829003601f168201915b5050505050908060020154905083565b60016020528060005260406000206000915054906101000a900460ff168156fea165627a7a72305820a6892848e140327eb572de85970fe53ffc706429d43ee1845219d2a1a1e0f2c80029",
  "source": "pragma solidity 0.5.0;\n\ncontract Election {\n  // Model a Candidate\n  struct Candidate {\n    uint id;\n    string name;\n    uint voteCount;\n  }\n  \n   // Read/write candidates\n   mapping(uint => Candidate) public candidates;\n   \n   // Store accounts that have voted\n   mapping(address => bool) public voters;\n   \n   // Store Cadidates Count\n   uint public candidatesCount;\n   \n   // Constructor\n   constructor() public {\n    addCandidate(\"Candidate 1\");\n    addCandidate(\"Candidate 2\");\n   }\n   \n   function addCandidate (string memory _name) private returns(uint){\n     candidatesCount++;\n     candidates[candidatesCount] = Candidate(candidatesCount, _name, 0); \n     return candidatesCount;\n   }\n   \n   function vote (uint _candidateId) public {\n     // require that they haven't voted before\n     require(!voters[msg.sender]);\n     \n     // require a valid candidate \n     require(_candidateId > 0 && _candidateId <= candidatesCount);\n     \n     // record that voter has voted\n     voters[msg.sender] = true;\n     \n     // update candidate vote Count\n     candidates[_candidateId].voteCount ++;\n   }\n   \n}",
  "sourcePath": "/Users/jus/EthDenver/election/contracts/Election.sol",
  "compiler": {
    "name": "solc",
    "version": "0.5.0+commit.1d4f565a.Emscripten.clang"
  },
  "schemaVersion": "3.0.2",
  "updatedAt": "2019-02-16T21:51:48.486Z",
  "devdoc": {
    "methods": {}
  },
  "userdoc": {
    "methods": {}
  }
}