{
  "contractName": "Election",
  "abi": [
    {
      "constant": true,
      "inputs": [],
      "name": "candidatesCount",
      "outputs": [
        {
          "name": "",
          "type": "uint256"
        }
      ],
      "payable": false,
      "stateMutability": "view",
      "type": "function",
      "signature": "0x2d35a8a2"
    },
    {
      "constant": true,
      "inputs": [
        {
          "name": "",
          "type": "uint256"
        }
      ],
      "name": "candidates",
      "outputs": [
        {
          "name": "id",
          "type": "uint256"
        },
        {
          "name": "name",
          "type": "string"
        },
        {
          "name": "voteCount",
          "type": "uint256"
        }
      ],
      "payable": false,
      "stateMutability": "view",
      "type": "function",
      "signature": "0x3477ee2e"
    },
    {
      "inputs": [],
      "payable": false,
      "stateMutability": "nonpayable",
      "type": "constructor",
      "signature": "constructor"
    }
  ],
  "bytecode": "0x608060405234801561001057600080fd5b5061005e6040805190810160405280600b81526020017f43616e64696461746520310000000000000000000000000000000000000000008152506100b2640100000000026401000000009004565b506100ac6040805190810160405280600b81526020017f43616e64696461746520320000000000000000000000000000000000000000008152506100b2640100000000026401000000009004565b506101dc565b600060016000815480929190600101919050555060606040519081016040528060015481526020018381526020016000815250600080600154815260200190815260200160002060008201518160000155602082015181600101908051906020019061011f929190610137565b50604082015181600201559050506001549050919050565b828054600181600116156101000203166002900490600052602060002090601f016020900481019282601f1061017857805160ff19168380011785556101a6565b828001600101855582156101a6579182015b828111156101a557825182559160200191906001019061018a565b5b5090506101b391906101b7565b5090565b6101d991905b808211156101d55760008160009055506001016101bd565b5090565b90565b610232806101eb6000396000f3fe60806040526004361061004c576000357c0100000000000000000000000000000000000000000000000000000000900463ffffffff1680632d35a8a2146100515780633477ee2e1461007c575b600080fd5b34801561005d57600080fd5b5061006661013e565b6040518082815260200191505060405180910390f35b34801561008857600080fd5b506100b56004803603602081101561009f57600080fd5b8101908080359060200190929190505050610144565b6040518084815260200180602001838152602001828103825284818151815260200191508051906020019080838360005b838110156101015780820151818401526020810190506100e6565b50505050905090810190601f16801561012e5780820380516001836020036101000a031916815260200191505b5094505050505060405180910390f35b60015481565b6000602052806000526040600020600091509050806000015490806001018054600181600116156101000203166002900480601f0160208091040260200160405190810160405280929190818152602001828054600181600116156101000203166002900480156101f65780601f106101cb576101008083540402835291602001916101f6565b820191906000526020600020905b8154815290600101906020018083116101d957829003601f168201915b505050505090806002015490508356fea165627a7a7230582000b23b35545de09b65cc28f4ccb56d78570ad2d4f8efeb34df71017fb551f3410029",
  "source": "pragma solidity 0.5.0;\n\ncontract Election {\n  // Model a Candidate\n  struct Candidate {\n    uint id;\n    string name;\n    uint voteCount;\n  }\n  \n   // Read/write candidates\n   mapping(uint => Candidate) public candidates;\n   \n   // Store Cadidates Count\n   uint public candidatesCount;\n   \n   // Constructor\n   constructor() public {\n    addCandidate(\"Candidate 1\");\n    addCandidate(\"Candidate 2\");\n   }\n   \n   function addCandidate (string memory _name) private returns(uint){\n     candidatesCount++;\n     candidates[candidatesCount] = Candidate(candidatesCount, _name, 0); \n     return candidatesCount;\n   }\n}",
  "sourcePath": "/Users/smolund/coding/bufficorn/election/contracts/Election.sol",
  "compiler": {
    "name": "solc",
    "version": "0.5.0+commit.1d4f565a.Emscripten.clang"
  },
  "schemaVersion": "3.0.2",
  "updatedAt": "2019-02-16T20:05:40.477Z",
  "devdoc": {
    "methods": {}
  },
  "userdoc": {
    "methods": {}
  }
}